{
  "address": "0x9a87A43Ac0B50984cd20964CB4978E6D9B3CBe5D",
  "abi": [
    {
      "inputs": [],
      "stateMutability": "nonpayable",
      "type": "constructor"
    },
    {
      "anonymous": false,
      "inputs": [
        {
          "indexed": true,
          "internalType": "address",
          "name": "owner",
          "type": "address"
        },
        {
          "indexed": true,
          "internalType": "address",
          "name": "approved",
          "type": "address"
        },
        {
          "indexed": true,
          "internalType": "uint256",
          "name": "tokenId",
          "type": "uint256"
        }
      ],
      "name": "Approval",
      "type": "event"
    },
    {
      "anonymous": false,
      "inputs": [
        {
          "indexed": true,
          "internalType": "address",
          "name": "owner",
          "type": "address"
        },
        {
          "indexed": true,
          "internalType": "address",
          "name": "operator",
          "type": "address"
        },
        {
          "indexed": false,
          "internalType": "bool",
          "name": "approved",
          "type": "bool"
        }
      ],
      "name": "ApprovalForAll",
      "type": "event"
    },
    {
      "anonymous": false,
      "inputs": [
        {
          "indexed": true,
          "internalType": "address",
          "name": "previousOwner",
          "type": "address"
        },
        {
          "indexed": true,
          "internalType": "address",
          "name": "newOwner",
          "type": "address"
        }
      ],
      "name": "OwnershipTransferred",
      "type": "event"
    },
    {
      "anonymous": false,
      "inputs": [
        {
          "indexed": false,
          "internalType": "address",
          "name": "account",
          "type": "address"
        }
      ],
      "name": "Paused",
      "type": "event"
    },
    {
      "anonymous": false,
      "inputs": [
        {
          "indexed": true,
          "internalType": "address",
          "name": "from",
          "type": "address"
        },
        {
          "indexed": true,
          "internalType": "address",
          "name": "to",
          "type": "address"
        },
        {
          "indexed": true,
          "internalType": "uint256",
          "name": "tokenId",
          "type": "uint256"
        }
      ],
      "name": "Transfer",
      "type": "event"
    },
    {
      "anonymous": false,
      "inputs": [
        {
          "indexed": false,
          "internalType": "address",
          "name": "account",
          "type": "address"
        }
      ],
      "name": "Unpaused",
      "type": "event"
    },
    {
      "inputs": [
        {
          "internalType": "address",
          "name": "to",
          "type": "address"
        },
        {
          "internalType": "uint256",
          "name": "tokenId",
          "type": "uint256"
        }
      ],
      "name": "approve",
      "outputs": [],
      "stateMutability": "nonpayable",
      "type": "function"
    },
    {
      "inputs": [
        {
          "internalType": "address",
          "name": "owner",
          "type": "address"
        }
      ],
      "name": "balanceOf",
      "outputs": [
        {
          "internalType": "uint256",
          "name": "",
          "type": "uint256"
        }
      ],
      "stateMutability": "view",
      "type": "function"
    },
    {
      "inputs": [
        {
          "internalType": "uint256",
          "name": "tokenId",
          "type": "uint256"
        }
      ],
      "name": "burn",
      "outputs": [],
      "stateMutability": "nonpayable",
      "type": "function"
    },
    {
      "inputs": [
        {
          "internalType": "uint256",
          "name": "tokenId",
          "type": "uint256"
        }
      ],
      "name": "getApproved",
      "outputs": [
        {
          "internalType": "address",
          "name": "",
          "type": "address"
        }
      ],
      "stateMutability": "view",
      "type": "function"
    },
    {
      "inputs": [
        {
          "internalType": "address",
          "name": "owner",
          "type": "address"
        },
        {
          "internalType": "address",
          "name": "operator",
          "type": "address"
        }
      ],
      "name": "isApprovedForAll",
      "outputs": [
        {
          "internalType": "bool",
          "name": "",
          "type": "bool"
        }
      ],
      "stateMutability": "view",
      "type": "function"
    },
    {
      "inputs": [],
      "name": "name",
      "outputs": [
        {
          "internalType": "string",
          "name": "",
          "type": "string"
        }
      ],
      "stateMutability": "view",
      "type": "function"
    },
    {
      "inputs": [],
      "name": "owner",
      "outputs": [
        {
          "internalType": "address",
          "name": "",
          "type": "address"
        }
      ],
      "stateMutability": "view",
      "type": "function"
    },
    {
      "inputs": [
        {
          "internalType": "uint256",
          "name": "tokenId",
          "type": "uint256"
        }
      ],
      "name": "ownerOf",
      "outputs": [
        {
          "internalType": "address",
          "name": "",
          "type": "address"
        }
      ],
      "stateMutability": "view",
      "type": "function"
    },
    {
      "inputs": [
        {
          "internalType": "uint256",
          "name": "",
          "type": "uint256"
        }
      ],
      "name": "params",
      "outputs": [
        {
          "internalType": "string",
          "name": "",
          "type": "string"
        }
      ],
      "stateMutability": "view",
      "type": "function"
    },
    {
      "inputs": [],
      "name": "pause",
      "outputs": [],
      "stateMutability": "nonpayable",
      "type": "function"
    },
    {
      "inputs": [],
      "name": "paused",
      "outputs": [
        {
          "internalType": "bool",
          "name": "",
          "type": "bool"
        }
      ],
      "stateMutability": "view",
      "type": "function"
    },
    {
      "inputs": [],
      "name": "renounceOwnership",
      "outputs": [],
      "stateMutability": "nonpayable",
      "type": "function"
    },
    {
      "inputs": [
        {
          "internalType": "address",
          "name": "to",
          "type": "address"
        },
        {
          "internalType": "string",
          "name": "paramsStr",
          "type": "string"
        }
      ],
      "name": "safeMint",
      "outputs": [],
      "stateMutability": "nonpayable",
      "type": "function"
    },
    {
      "inputs": [
        {
          "internalType": "address",
          "name": "from",
          "type": "address"
        },
        {
          "internalType": "address",
          "name": "to",
          "type": "address"
        },
        {
          "internalType": "uint256",
          "name": "tokenId",
          "type": "uint256"
        }
      ],
      "name": "safeTransferFrom",
      "outputs": [],
      "stateMutability": "nonpayable",
      "type": "function"
    },
    {
      "inputs": [
        {
          "internalType": "address",
          "name": "from",
          "type": "address"
        },
        {
          "internalType": "address",
          "name": "to",
          "type": "address"
        },
        {
          "internalType": "uint256",
          "name": "tokenId",
          "type": "uint256"
        },
        {
          "internalType": "bytes",
          "name": "data",
          "type": "bytes"
        }
      ],
      "name": "safeTransferFrom",
      "outputs": [],
      "stateMutability": "nonpayable",
      "type": "function"
    },
    {
      "inputs": [
        {
          "internalType": "address",
          "name": "operator",
          "type": "address"
        },
        {
          "internalType": "bool",
          "name": "approved",
          "type": "bool"
        }
      ],
      "name": "setApprovalForAll",
      "outputs": [],
      "stateMutability": "nonpayable",
      "type": "function"
    },
    {
      "inputs": [
        {
          "internalType": "uint256",
          "name": "tokenId",
          "type": "uint256"
        },
        {
          "internalType": "string",
          "name": "paramsStr",
          "type": "string"
        }
      ],
      "name": "setParams",
      "outputs": [],
      "stateMutability": "nonpayable",
      "type": "function"
    },
    {
      "inputs": [
        {
          "internalType": "bytes4",
          "name": "interfaceId",
          "type": "bytes4"
        }
      ],
      "name": "supportsInterface",
      "outputs": [
        {
          "internalType": "bool",
          "name": "",
          "type": "bool"
        }
      ],
      "stateMutability": "view",
      "type": "function"
    },
    {
      "inputs": [],
      "name": "symbol",
      "outputs": [
        {
          "internalType": "string",
          "name": "",
          "type": "string"
        }
      ],
      "stateMutability": "view",
      "type": "function"
    },
    {
      "inputs": [
        {
          "internalType": "uint256",
          "name": "index",
          "type": "uint256"
        }
      ],
      "name": "tokenByIndex",
      "outputs": [
        {
          "internalType": "uint256",
          "name": "",
          "type": "uint256"
        }
      ],
      "stateMutability": "view",
      "type": "function"
    },
    {
      "inputs": [
        {
          "internalType": "address",
          "name": "owner",
          "type": "address"
        },
        {
          "internalType": "uint256",
          "name": "index",
          "type": "uint256"
        }
      ],
      "name": "tokenOfOwnerByIndex",
      "outputs": [
        {
          "internalType": "uint256",
          "name": "",
          "type": "uint256"
        }
      ],
      "stateMutability": "view",
      "type": "function"
    },
    {
      "inputs": [
        {
          "internalType": "uint256",
          "name": "tokenId",
          "type": "uint256"
        }
      ],
      "name": "tokenURI",
      "outputs": [
        {
          "internalType": "string",
          "name": "",
          "type": "string"
        }
      ],
      "stateMutability": "view",
      "type": "function"
    },
    {
      "inputs": [],
      "name": "totalSupply",
      "outputs": [
        {
          "internalType": "uint256",
          "name": "",
          "type": "uint256"
        }
      ],
      "stateMutability": "view",
      "type": "function"
    },
    {
      "inputs": [
        {
          "internalType": "address",
          "name": "from",
          "type": "address"
        },
        {
          "internalType": "address",
          "name": "to",
          "type": "address"
        },
        {
          "internalType": "uint256",
          "name": "tokenId",
          "type": "uint256"
        }
      ],
      "name": "transferFrom",
      "outputs": [],
      "stateMutability": "nonpayable",
      "type": "function"
    },
    {
      "inputs": [
        {
          "internalType": "address",
          "name": "newOwner",
          "type": "address"
        }
      ],
      "name": "transferOwnership",
      "outputs": [],
      "stateMutability": "nonpayable",
      "type": "function"
    },
    {
      "inputs": [],
      "name": "unpause",
      "outputs": [],
      "stateMutability": "nonpayable",
      "type": "function"
    }
  ],
  "transactionHash": "0xbda9d967e9a4e6f361f8be27dda505c49a7dc37dc794e282e4e8714e5d95fb74",
  "args": [],
  "numDeployments": 1,
  "solcInputHash": "12e5757678e57757a0e1740f8a844d85",
  "bytecode": "0x60806040523480156200001157600080fd5b5060405180606001604052806022815260200162001de76022913960408051808201909152600581526405946454d560dc1b6020820152600062000056838262000182565b50600162000065828262000182565b5050600a805460ff19169055506200007d3362000083565b6200024e565b600a80546001600160a01b03838116610100818102610100600160a81b031985161790945560405193909204169182907f8be0079c531659141344cd1fd0a4f28419497f9722a3daafe3b4186f6b6457e090600090a35050565b634e487b7160e01b600052604160045260246000fd5b600181811c908216806200010857607f821691505b6020821081036200012957634e487b7160e01b600052602260045260246000fd5b50919050565b601f8211156200017d57600081815260208120601f850160051c81016020861015620001585750805b601f850160051c820191505b81811015620001795782815560010162000164565b5050505b505050565b81516001600160401b038111156200019e576200019e620000dd565b620001b681620001af8454620000f3565b846200012f565b602080601f831160018114620001ee5760008415620001d55750858301515b600019600386901b1c1916600185901b17855562000179565b600085815260208120601f198616915b828110156200021f57888601518255948401946001909101908401620001fe565b50858210156200023e5787850151600019600388901b60f8161c191681555b5050505050600190811b01905550565b611b89806200025e6000396000f3fe608060405234801561001057600080fd5b50600436106101735760003560e01c80635c975abb116100de57806395d89b4111610097578063c87b56dd11610071578063c87b56dd14610306578063d204c45e14610319578063e985e9c51461032c578063f2fde38b1461036857600080fd5b806395d89b41146102d8578063a22cb465146102e0578063b88d4fde146102f357600080fd5b80635c975abb146102815780636352211e1461028c57806370a082311461029f578063715018a6146102b25780638456cb59146102ba5780638da5cb5b146102c257600080fd5b80632f745c59116101305780632f745c591461021a5780633f4ba83a1461022d57806342842e0e1461023557806342966c68146102485780634f6ccce71461025b578063505a0a231461026e57600080fd5b806301ffc9a71461017857806306fdde03146101a0578063081812fc146101b5578063095ea7b3146101e057806318160ddd146101f557806323b872dd14610207575b600080fd5b61018b6101863660046114e8565b61037b565b60405190151581526020015b60405180910390f35b6101a861038c565b6040516101979190611555565b6101c86101c3366004611568565b61041e565b6040516001600160a01b039091168152602001610197565b6101f36101ee36600461159d565b610445565b005b6008545b604051908152602001610197565b6101f36102153660046115c7565b610492565b6101f961022836600461159d565b6104aa565b6101f3610540565b6101f36102433660046115c7565b610552565b6101f3610256366004611568565b610575565b6101f9610269366004611568565b610589565b6101a861027c366004611568565b61061c565b600a5460ff1661018b565b6101c861029a366004611568565b6106b6565b6101f96102ad366004611603565b610716565b6101f361079c565b6101f36107ae565b600a5461010090046001600160a01b03166101c8565b6101a86107be565b6101f36102ee36600461161e565b6107cd565b6101f36103013660046116e6565b610824565b6101a8610314366004611568565b61083e565b6101f3610327366004611762565b6108af565b61018b61033a3660046117c4565b6001600160a01b03918216600090815260056020908152604080832093909416825291909152205460ff1690565b6101f3610376366004611603565b6108f4565b60006103868261096a565b92915050565b60606000805461039b906117f7565b80601f01602080910402602001604051908101604052809291908181526020018280546103c7906117f7565b80156104145780601f106103e957610100808354040283529160200191610414565b820191906000526020600020905b8154815290600101906020018083116103f757829003601f168201915b5050505050905090565b60006104298261098f565b506000908152600460205260409020546001600160a01b031690565b60405162461bcd60e51b815260206004820152601d60248201527f417070726f76616c2066756e6374696f6e2069732064697361626c656400000060448201526064015b60405180910390fd5b61049a6109ee565b6104a5838383610a4e565b505050565b60006104b583610716565b82106105175760405162461bcd60e51b815260206004820152602b60248201527f455243373231456e756d657261626c653a206f776e657220696e646578206f7560448201526a74206f6620626f756e647360a81b6064820152608401610489565b506001600160a01b03919091166000908152600660209081526040808320938352929052205490565b6105486109ee565b610550610bbf565b565b61055a6109ee565b6104a583838360405180602001604052806000815250610c11565b61057d6109ee565b61058681610c44565b50565b600061059460085490565b82106105f75760405162461bcd60e51b815260206004820152602c60248201527f455243373231456e756d657261626c653a20676c6f62616c20696e646578206f60448201526b7574206f6620626f756e647360a01b6064820152608401610489565b6008828154811061060a5761060a611831565b90600052602060002001549050919050565b600b6020526000908152604090208054610635906117f7565b80601f0160208091040260200160405190810160405280929190818152602001828054610661906117f7565b80156106ae5780601f10610683576101008083540402835291602001916106ae565b820191906000526020600020905b81548152906001019060200180831161069157829003601f168201915b505050505081565b6000818152600260205260408120546001600160a01b0316806103865760405162461bcd60e51b8152602060048201526018602482015277115490cdcc8c4e881a5b9d985b1a59081d1bdad95b88125160421b6044820152606401610489565b60006001600160a01b0382166107805760405162461bcd60e51b815260206004820152602960248201527f4552433732313a2061646472657373207a65726f206973206e6f7420612076616044820152683634b21037bbb732b960b91b6064820152608401610489565b506001600160a01b031660009081526003602052604090205490565b6107a46109ee565b6105506000610ce8565b6107b66109ee565b610550610d42565b60606001805461039b906117f7565b60405162461bcd60e51b815260206004820152602660248201527f536574417070726f76616c466f72416c6c2066756e6374696f6e2069732064696044820152651cd8589b195960d21b6064820152608401610489565b61082c6109ee565b61083884848484610c11565b50505050565b60606108498261098f565b6000610853610d7f565b9050600081511161087357604051806020016040528060008152506108a8565b80600b6000858152602001908152602001600020604051602001610898929190611847565b6040516020818303038152906040525b9392505050565b6108b76109ee565b60006108c2600c5490565b90506108d2600c80546001019055565b6108dc8382610d9f565b6000818152600b602052604090206108388382611922565b6108fc6109ee565b6001600160a01b0381166109615760405162461bcd60e51b815260206004820152602660248201527f4f776e61626c653a206e6577206f776e657220697320746865207a65726f206160448201526564647265737360d01b6064820152608401610489565b61058681610ce8565b60006001600160e01b0319821663780e9d6360e01b1480610386575061038682610db9565b6000818152600260205260409020546001600160a01b03166105865760405162461bcd60e51b8152602060048201526018602482015277115490cdcc8c4e881a5b9d985b1a59081d1bdad95b88125160421b6044820152606401610489565b600a546001600160a01b036101009091041633146105505760405162461bcd60e51b815260206004820181905260248201527f4f776e61626c653a2063616c6c6572206973206e6f7420746865206f776e65726044820152606401610489565b826001600160a01b0316610a61826106b6565b6001600160a01b031614610a875760405162461bcd60e51b8152600401610489906119e2565b6001600160a01b038216610ae95760405162461bcd60e51b8152602060048201526024808201527f4552433732313a207472616e7366657220746f20746865207a65726f206164646044820152637265737360e01b6064820152608401610489565b610af68383836001610e09565b826001600160a01b0316610b09826106b6565b6001600160a01b031614610b2f5760405162461bcd60e51b8152600401610489906119e2565b600081815260046020908152604080832080546001600160a01b03199081169091556001600160a01b0387811680865260038552838620805460001901905590871680865283862080546001019055868652600290945282852080549092168417909155905184937fddf252ad1be2c89b69c2b068fc378daa952ba7f163c4a11628f55a4df523b3ef91a4505050565b610bc7610e1d565b600a805460ff191690557f5db9ee0a495bf2e6ff9c91a7834c1ba4fdd244a5e8aa4e537bd38aeae4b073aa335b6040516001600160a01b03909116815260200160405180910390a1565b610c1c848484610a4e565b610c2884848484610e66565b6108385760405162461bcd60e51b815260040161048990611a27565b6000610c4f826106b6565b9050610c5f816000846001610e09565b610c68826106b6565b600083815260046020908152604080832080546001600160a01b03199081169091556001600160a01b0385168085526003845282852080546000190190558785526002909352818420805490911690555192935084927fddf252ad1be2c89b69c2b068fc378daa952ba7f163c4a11628f55a4df523b3ef908390a45b5050565b600a80546001600160a01b03838116610100818102610100600160a81b031985161790945560405193909204169182907f8be0079c531659141344cd1fd0a4f28419497f9722a3daafe3b4186f6b6457e090600090a35050565b610d4a610f68565b600a805460ff191660011790557f62e78cea01bee320cd4e420270b5ea74000d11b0c9f74754ebdbfc544b05a258610bf43390565b60606040518060600160405280602e8152602001611b26602e9139905090565b610ce4828260405180602001604052806000815250610fae565b60006001600160e01b031982166380ac58cd60e01b1480610dea57506001600160e01b03198216635b5e139f60e01b145b8061038657506301ffc9a760e01b6001600160e01b0319831614610386565b610e11610f68565b61083884848484610fe1565b600a5460ff166105505760405162461bcd60e51b815260206004820152601460248201527314185d5cd8589b194e881b9bdd081c185d5cd95960621b6044820152606401610489565b60006001600160a01b0384163b15610f5c57604051630a85bd0160e11b81526001600160a01b0385169063150b7a0290610eaa903390899088908890600401611a79565b6020604051808303816000875af1925050508015610ee5575060408051601f3d908101601f19168201909252610ee291810190611ab6565b60015b610f42573d808015610f13576040519150601f19603f3d011682016040523d82523d6000602084013e610f18565b606091505b508051600003610f3a5760405162461bcd60e51b815260040161048990611a27565b805181602001fd5b6001600160e01b031916630a85bd0160e11b149050610f60565b5060015b949350505050565b600a5460ff16156105505760405162461bcd60e51b815260206004820152601060248201526f14185d5cd8589b194e881c185d5cd95960821b6044820152606401610489565b610fb88383611121565b610fc56000848484610e66565b6104a55760405162461bcd60e51b815260040161048990611a27565b610fed848484846112ba565b600181111561105c5760405162461bcd60e51b815260206004820152603560248201527f455243373231456e756d657261626c653a20636f6e7365637574697665207472604482015274185b9cd9995c9cc81b9bdd081cdd5c1c1bdc9d1959605a1b6064820152608401610489565b816001600160a01b0385166110b8576110b381600880546000838152600960205260408120829055600182018355919091527ff3f7a9fe364faab93b216da50a3214154f22a0a2b415b23a84c8169e8b636ee30155565b6110db565b836001600160a01b0316856001600160a01b0316146110db576110db8582611342565b6001600160a01b0384166110f7576110f2816113df565b61111a565b846001600160a01b0316846001600160a01b03161461111a5761111a848261148e565b5050505050565b6001600160a01b0382166111775760405162461bcd60e51b815260206004820181905260248201527f4552433732313a206d696e7420746f20746865207a65726f20616464726573736044820152606401610489565b6000818152600260205260409020546001600160a01b0316156111dc5760405162461bcd60e51b815260206004820152601c60248201527f4552433732313a20746f6b656e20616c7265616479206d696e746564000000006044820152606401610489565b6111ea600083836001610e09565b6000818152600260205260409020546001600160a01b03161561124f5760405162461bcd60e51b815260206004820152601c60248201527f4552433732313a20746f6b656e20616c7265616479206d696e746564000000006044820152606401610489565b6001600160a01b038216600081815260036020908152604080832080546001019055848352600290915280822080546001600160a01b0319168417905551839291907fddf252ad1be2c89b69c2b068fc378daa952ba7f163c4a11628f55a4df523b3ef908290a45050565b6001811115610838576001600160a01b03841615611300576001600160a01b038416600090815260036020526040812080548392906112fa908490611ae9565b90915550505b6001600160a01b03831615610838576001600160a01b03831660009081526003602052604081208054839290611337908490611afc565b909155505050505050565b6000600161134f84610716565b6113599190611ae9565b6000838152600760205260409020549091508082146113ac576001600160a01b03841660009081526006602090815260408083208584528252808320548484528184208190558352600790915290208190555b5060009182526007602090815260408084208490556001600160a01b039094168352600681528383209183525290812055565b6008546000906113f190600190611ae9565b6000838152600960205260408120546008805493945090928490811061141957611419611831565b90600052602060002001549050806008838154811061143a5761143a611831565b600091825260208083209091019290925582815260099091526040808220849055858252812055600880548061147257611472611b0f565b6001900381819060005260206000200160009055905550505050565b600061149983610716565b6001600160a01b039093166000908152600660209081526040808320868452825280832085905593825260079052919091209190915550565b6001600160e01b03198116811461058657600080fd5b6000602082840312156114fa57600080fd5b81356108a8816114d2565b60005b83811015611520578181015183820152602001611508565b50506000910152565b60008151808452611541816020860160208601611505565b601f01601f19169290920160200192915050565b6020815260006108a86020830184611529565b60006020828403121561157a57600080fd5b5035919050565b80356001600160a01b038116811461159857600080fd5b919050565b600080604083850312156115b057600080fd5b6115b983611581565b946020939093013593505050565b6000806000606084860312156115dc57600080fd5b6115e584611581565b92506115f360208501611581565b9150604084013590509250925092565b60006020828403121561161557600080fd5b6108a882611581565b6000806040838503121561163157600080fd5b61163a83611581565b91506020830135801515811461164f57600080fd5b809150509250929050565b634e487b7160e01b600052604160045260246000fd5b600067ffffffffffffffff8084111561168b5761168b61165a565b604051601f8501601f19908116603f011681019082821181831017156116b3576116b361165a565b816040528093508581528686860111156116cc57600080fd5b858560208301376000602087830101525050509392505050565b600080600080608085870312156116fc57600080fd5b61170585611581565b935061171360208601611581565b925060408501359150606085013567ffffffffffffffff81111561173657600080fd5b8501601f8101871361174757600080fd5b61175687823560208401611670565b91505092959194509250565b6000806040838503121561177557600080fd5b61177e83611581565b9150602083013567ffffffffffffffff81111561179a57600080fd5b8301601f810185136117ab57600080fd5b6117ba85823560208401611670565b9150509250929050565b600080604083850312156117d757600080fd5b6117e083611581565b91506117ee60208401611581565b90509250929050565b600181811c9082168061180b57607f821691505b60208210810361182b57634e487b7160e01b600052602260045260246000fd5b50919050565b634e487b7160e01b600052603260045260246000fd5b60008351602061185a8285838901611505565b81840191506000855461186c816117f7565b600182811680156118845760018114611899576118c5565b60ff19841687528215158302870194506118c5565b896000528560002060005b848110156118bd578154898201529083019087016118a4565b505082870194505b50929998505050505050505050565b601f8211156104a557600081815260208120601f850160051c810160208610156118fb5750805b601f850160051c820191505b8181101561191a57828155600101611907565b505050505050565b815167ffffffffffffffff81111561193c5761193c61165a565b6119508161194a84546117f7565b846118d4565b602080601f831160018114611985576000841561196d5750858301515b600019600386901b1c1916600185901b17855561191a565b600085815260208120601f198616915b828110156119b457888601518255948401946001909101908401611995565b50858210156119d25787850151600019600388901b60f8161c191681555b5050505050600190811b01905550565b60208082526025908201527f4552433732313a207472616e736665722066726f6d20696e636f72726563742060408201526437bbb732b960d91b606082015260800190565b60208082526032908201527f4552433732313a207472616e7366657220746f206e6f6e20455243373231526560408201527131b2b4bb32b91034b6b83632b6b2b73a32b960711b606082015260800190565b6001600160a01b0385811682528416602082015260408101839052608060608201819052600090611aac90830184611529565b9695505050505050565b600060208284031215611ac857600080fd5b81516108a8816114d2565b634e487b7160e01b600052601160045260246000fd5b8181038181111561038657610386611ad3565b8082018082111561038657610386611ad3565b634e487b7160e01b600052603160045260246000fdfe68747470733a2f2f796f68616b752e636c75622f6170692f6e66742f6d657461646174612f6d696e74706173732fa264697066735822122063863c7968bc461022def77f45a44637894acd3328b024b6cb26e3b2bb30f93364736f6c63430008110033594f48414b5520466f756e64657227732045646974696f6e204d696e742050617373",
  "devdoc": {
    "custom:security-contact": "workbzw@outlook.com",
    "kind": "dev",
    "methods": {
      "balanceOf(address)": {
        "details": "See {IERC721-balanceOf}."
      },
      "burn(uint256)": {
        "details": "Burns `tokenId`. See {ERC721-_burn}. Requirements: - The caller must own `tokenId` or be an approved operator."
      },
      "getApproved(uint256)": {
        "details": "See {IERC721-getApproved}."
      },
      "isApprovedForAll(address,address)": {
        "details": "See {IERC721-isApprovedForAll}."
      },
      "name()": {
        "details": "See {IERC721Metadata-name}."
      },
      "owner()": {
        "details": "Returns the address of the current owner."
      },
      "ownerOf(uint256)": {
        "details": "See {IERC721-ownerOf}."
      },
      "paused()": {
        "details": "Returns true if the contract is paused, and false otherwise."
      },
      "renounceOwnership()": {
        "details": "Leaves the contract without owner. It will not be possible to call `onlyOwner` functions anymore. Can only be called by the current owner. NOTE: Renouncing ownership will leave the contract without an owner, thereby removing any functionality that is only available to the owner."
      },
      "symbol()": {
        "details": "See {IERC721Metadata-symbol}."
      },
      "tokenByIndex(uint256)": {
        "details": "See {IERC721Enumerable-tokenByIndex}."
      },
      "tokenOfOwnerByIndex(address,uint256)": {
        "details": "See {IERC721Enumerable-tokenOfOwnerByIndex}."
      },
      "tokenURI(uint256)": {
        "details": "See {IERC721Metadata-tokenURI}."
      },
      "totalSupply()": {
        "details": "See {IERC721Enumerable-totalSupply}."
      },
      "transferOwnership(address)": {
        "details": "Transfers ownership of the contract to a new account (`newOwner`). Can only be called by the current owner."
      }
    },
    "version": 1
  },
  "userdoc": {
    "kind": "user",
    "methods": {},
    "version": 1
  },
  "storageLayout": {
    "storage": [
      {
        "astId": 246,
        "contract": "contracts/NFTMintPass.sol:NFTMintPass",
        "label": "_name",
        "offset": 0,
        "slot": "0",
        "type": "t_string_storage"
      },
      {
        "astId": 248,
        "contract": "contracts/NFTMintPass.sol:NFTMintPass",
        "label": "_symbol",
        "offset": 0,
        "slot": "1",
        "type": "t_string_storage"
      },
      {
        "astId": 252,
        "contract": "contracts/NFTMintPass.sol:NFTMintPass",
        "label": "_owners",
        "offset": 0,
        "slot": "2",
        "type": "t_mapping(t_uint256,t_address)"
      },
      {
        "astId": 256,
        "contract": "contracts/NFTMintPass.sol:NFTMintPass",
        "label": "_balances",
        "offset": 0,
        "slot": "3",
        "type": "t_mapping(t_address,t_uint256)"
      },
      {
        "astId": 260,
        "contract": "contracts/NFTMintPass.sol:NFTMintPass",
        "label": "_tokenApprovals",
        "offset": 0,
        "slot": "4",
        "type": "t_mapping(t_uint256,t_address)"
      },
      {
        "astId": 266,
        "contract": "contracts/NFTMintPass.sol:NFTMintPass",
        "label": "_operatorApprovals",
        "offset": 0,
        "slot": "5",
        "type": "t_mapping(t_address,t_mapping(t_address,t_bool))"
      },
      {
        "astId": 1344,
        "contract": "contracts/NFTMintPass.sol:NFTMintPass",
        "label": "_ownedTokens",
        "offset": 0,
        "slot": "6",
        "type": "t_mapping(t_address,t_mapping(t_uint256,t_uint256))"
      },
      {
        "astId": 1348,
        "contract": "contracts/NFTMintPass.sol:NFTMintPass",
        "label": "_ownedTokensIndex",
        "offset": 0,
        "slot": "7",
        "type": "t_mapping(t_uint256,t_uint256)"
      },
      {
        "astId": 1351,
        "contract": "contracts/NFTMintPass.sol:NFTMintPass",
        "label": "_allTokens",
        "offset": 0,
        "slot": "8",
        "type": "t_array(t_uint256)dyn_storage"
      },
      {
        "astId": 1355,
        "contract": "contracts/NFTMintPass.sol:NFTMintPass",
        "label": "_allTokensIndex",
        "offset": 0,
        "slot": "9",
        "type": "t_mapping(t_uint256,t_uint256)"
      },
      {
        "astId": 130,
        "contract": "contracts/NFTMintPass.sol:NFTMintPass",
        "label": "_paused",
        "offset": 0,
        "slot": "10",
        "type": "t_bool"
      },
      {
        "astId": 7,
        "contract": "contracts/NFTMintPass.sol:NFTMintPass",
        "label": "_owner",
        "offset": 1,
        "slot": "10",
        "type": "t_address"
      },
      {
        "astId": 4490,
        "contract": "contracts/NFTMintPass.sol:NFTMintPass",
        "label": "pattern",
        "offset": 0,
        "slot": "11",
        "type": "t_mapping(t_uint256,t_string_storage)"
      },
      {
        "astId": 4493,
        "contract": "contracts/NFTMintPass.sol:NFTMintPass",
        "label": "_tokenIdCounter",
        "offset": 0,
        "slot": "12",
        "type": "t_struct(Counter)2099_storage"
      }
    ],
    "types": {
      "t_address": {
        "encoding": "inplace",
        "label": "address",
        "numberOfBytes": "20"
      },
      "t_array(t_uint256)dyn_storage": {
        "base": "t_uint256",
        "encoding": "dynamic_array",
        "label": "uint256[]",
        "numberOfBytes": "32"
      },
      "t_bool": {
        "encoding": "inplace",
        "label": "bool",
        "numberOfBytes": "1"
      },
      "t_mapping(t_address,t_bool)": {
        "encoding": "mapping",
        "key": "t_address",
        "label": "mapping(address => bool)",
        "numberOfBytes": "32",
        "value": "t_bool"
      },
      "t_mapping(t_address,t_mapping(t_address,t_bool))": {
        "encoding": "mapping",
        "key": "t_address",
        "label": "mapping(address => mapping(address => bool))",
        "numberOfBytes": "32",
        "value": "t_mapping(t_address,t_bool)"
      },
      "t_mapping(t_address,t_mapping(t_uint256,t_uint256))": {
        "encoding": "mapping",
        "key": "t_address",
        "label": "mapping(address => mapping(uint256 => uint256))",
        "numberOfBytes": "32",
        "value": "t_mapping(t_uint256,t_uint256)"
      },
      "t_mapping(t_address,t_uint256)": {
        "encoding": "mapping",
        "key": "t_address",
        "label": "mapping(address => uint256)",
        "numberOfBytes": "32",
        "value": "t_uint256"
      },
      "t_mapping(t_uint256,t_address)": {
        "encoding": "mapping",
        "key": "t_uint256",
        "label": "mapping(uint256 => address)",
        "numberOfBytes": "32",
        "value": "t_address"
      },
      "t_mapping(t_uint256,t_string_storage)": {
        "encoding": "mapping",
        "key": "t_uint256",
        "label": "mapping(uint256 => string)",
        "numberOfBytes": "32",
        "value": "t_string_storage"
      },
      "t_mapping(t_uint256,t_uint256)": {
        "encoding": "mapping",
        "key": "t_uint256",
        "label": "mapping(uint256 => uint256)",
        "numberOfBytes": "32",
        "value": "t_uint256"
      },
      "t_string_storage": {
        "encoding": "bytes",
        "label": "string",
        "numberOfBytes": "32"
      },
      "t_struct(Counter)2099_storage": {
        "encoding": "inplace",
        "label": "struct Counters.Counter",
        "members": [
          {
            "astId": 2098,
            "contract": "contracts/NFTMintPass.sol:NFTMintPass",
            "label": "_value",
            "offset": 0,
            "slot": "0",
            "type": "t_uint256"
          }
        ],
        "numberOfBytes": "32"
      },
      "t_uint256": {
        "encoding": "inplace",
        "label": "uint256",
        "numberOfBytes": "32"
      }
    }
  }
}